{"abi":[{"type":"constructor","inputs":[{"name":"_factory","type":"address","internalType":"address"},{"name":"_WETH","type":"address","internalType":"address"}],"stateMutability":"nonpayable"},{"type":"receive","stateMutability":"payable"},{"type":"function","name":"WETH","inputs":[],"outputs":[{"name":"","type":"address","internalType":"address"}],"stateMutability":"view"},{"type":"function","name":"addLiquidity","inputs":[{"name":"tokenA","type":"address","internalType":"address"},{"name":"tokenB","type":"address","internalType":"address"},{"name":"amountADesired","type":"uint256","internalType":"uint256"},{"name":"amountBDesired","type":"uint256","internalType":"uint256"},{"name":"amountAMin","type":"uint256","internalType":"uint256"},{"name":"amountBMin","type":"uint256","internalType":"uint256"},{"name":"to","type":"address","internalType":"address"},{"name":"deadline","type":"uint256","internalType":"uint256"}],"outputs":[{"name":"amountA","type":"uint256","internalType":"uint256"},{"name":"amountB","type":"uint256","internalType":"uint256"},{"name":"liquidity","type":"uint256","internalType":"uint256"}],"stateMutability":"nonpayable"},{"type":"function","name":"addLiquidityETH","inputs":[{"name":"token","type":"address","internalType":"address"},{"name":"amountTokenDesired","type":"uint256","internalType":"uint256"},{"name":"amountTokenMin","type":"uint256","internalType":"uint256"},{"name":"amountETHMin","type":"uint256","internalType":"uint256"},{"name":"to","type":"address","internalType":"address"},{"name":"deadline","type":"uint256","internalType":"uint256"}],"outputs":[{"name":"amountToken","type":"uint256","internalType":"uint256"},{"name":"amountETH","type":"uint256","internalType":"uint256"},{"name":"liquidity","type":"uint256","internalType":"uint256"}],"stateMutability":"payable"},{"type":"function","name":"factory","inputs":[],"outputs":[{"name":"","type":"address","internalType":"address"}],"stateMutability":"view"},{"type":"function","name":"getAmountIn","inputs":[{"name":"amountOut","type":"uint256","internalType":"uint256"},{"name":"reserveIn","type":"uint256","internalType":"uint256"},{"name":"reserveOut","type":"uint256","internalType":"uint256"}],"outputs":[{"name":"amountIn","type":"uint256","internalType":"uint256"}],"stateMutability":"pure"},{"type":"function","name":"getAmountOut","inputs":[{"name":"amountIn","type":"uint256","internalType":"uint256"},{"name":"reserveIn","type":"uint256","internalType":"uint256"},{"name":"reserveOut","type":"uint256","internalType":"uint256"}],"outputs":[{"name":"amountOut","type":"uint256","internalType":"uint256"}],"stateMutability":"pure"},{"type":"function","name":"getAmountsIn","inputs":[{"name":"amountOut","type":"uint256","internalType":"uint256"},{"name":"path","type":"address[]","internalType":"address[]"}],"outputs":[{"name":"amounts","type":"uint256[]","internalType":"uint256[]"}],"stateMutability":"view"},{"type":"function","name":"getAmountsOut","inputs":[{"name":"amountIn","type":"uint256","internalType":"uint256"},{"name":"path","type":"address[]","internalType":"address[]"}],"outputs":[{"name":"amounts","type":"uint256[]","internalType":"uint256[]"}],"stateMutability":"view"},{"type":"function","name":"quote","inputs":[{"name":"amountA","type":"uint256","internalType":"uint256"},{"name":"reserveA","type":"uint256","internalType":"uint256"},{"name":"reserveB","type":"uint256","internalType":"uint256"}],"outputs":[{"name":"amountB","type":"uint256","internalType":"uint256"}],"stateMutability":"pure"},{"type":"function","name":"removeLiquidity","inputs":[{"name":"tokenA","type":"address","internalType":"address"},{"name":"tokenB","type":"address","internalType":"address"},{"name":"liquidity","type":"uint256","internalType":"uint256"},{"name":"amountAMin","type":"uint256","internalType":"uint256"},{"name":"amountBMin","type":"uint256","internalType":"uint256"},{"name":"to","type":"address","internalType":"address"},{"name":"deadline","type":"uint256","internalType":"uint256"}],"outputs":[{"name":"amountA","type":"uint256","internalType":"uint256"},{"name":"amountB","type":"uint256","internalType":"uint256"}],"stateMutability":"nonpayable"},{"type":"function","name":"removeLiquidityETH","inputs":[{"name":"token","type":"address","internalType":"address"},{"name":"liquidity","type":"uint256","internalType":"uint256"},{"name":"amountTokenMin","type":"uint256","internalType":"uint256"},{"name":"amountETHMin","type":"uint256","internalType":"uint256"},{"name":"to","type":"address","internalType":"address"},{"name":"deadline","type":"uint256","internalType":"uint256"}],"outputs":[{"name":"amountToken","type":"uint256","internalType":"uint256"},{"name":"amountETH","type":"uint256","internalType":"uint256"}],"stateMutability":"nonpayable"},{"type":"function","name":"removeLiquidityETHSupportingFeeOnTransferTokens","inputs":[{"name":"token","type":"address","internalType":"address"},{"name":"liquidity","type":"uint256","internalType":"uint256"},{"name":"amountTokenMin","type":"uint256","internalType":"uint256"},{"name":"amountETHMin","type":"uint256","internalType":"uint256"},{"name":"to","type":"address","internalType":"address"},{"name":"deadline","type":"uint256","internalType":"uint256"}],"outputs":[{"name":"amountETH","type":"uint256","internalType":"uint256"}],"stateMutability":"nonpayable"},{"type":"function","name":"removeLiquidityETHWithPermit","inputs":[{"name":"token","type":"address","internalType":"address"},{"name":"liquidity","type":"uint256","internalType":"uint256"},{"name":"amountTokenMin","type":"uint256","internalType":"uint256"},{"name":"amountETHMin","type":"uint256","internalType":"uint256"},{"name":"to","type":"address","internalType":"address"},{"name":"deadline","type":"uint256","internalType":"uint256"},{"name":"approveMax","type":"bool","internalType":"bool"},{"name":"v","type":"uint8","internalType":"uint8"},{"name":"r","type":"bytes32","internalType":"bytes32"},{"name":"s","type":"bytes32","internalType":"bytes32"}],"outputs":[{"name":"amountToken","type":"uint256","internalType":"uint256"},{"name":"amountETH","type":"uint256","internalType":"uint256"}],"stateMutability":"nonpayable"},{"type":"function","name":"removeLiquidityETHWithPermitSupportingFeeOnTransferTokens","inputs":[{"name":"token","type":"address","internalType":"address"},{"name":"liquidity","type":"uint256","internalType":"uint256"},{"name":"amountTokenMin","type":"uint256","internalType":"uint256"},{"name":"amountETHMin","type":"uint256","internalType":"uint256"},{"name":"to","type":"address","internalType":"address"},{"name":"deadline","type":"uint256","internalType":"uint256"},{"name":"approveMax","type":"bool","internalType":"bool"},{"name":"v","type":"uint8","internalType":"uint8"},{"name":"r","type":"bytes32","internalType":"bytes32"},{"name":"s","type":"bytes32","internalType":"bytes32"}],"outputs":[{"name":"amountETH","type":"uint256","internalType":"uint256"}],"stateMutability":"nonpayable"},{"type":"function","name":"removeLiquidityWithPermit","inputs":[{"name":"tokenA","type":"address","internalType":"address"},{"name":"tokenB","type":"address","internalType":"address"},{"name":"liquidity","type":"uint256","internalType":"uint256"},{"name":"amountAMin","type":"uint256","internalType":"uint256"},{"name":"amountBMin","type":"uint256","internalType":"uint256"},{"name":"to","type":"address","internalType":"address"},{"name":"deadline","type":"uint256","internalType":"uint256"},{"name":"approveMax","type":"bool","internalType":"bool"},{"name":"v","type":"uint8","internalType":"uint8"},{"name":"r","type":"bytes32","internalType":"bytes32"},{"name":"s","type":"bytes32","internalType":"bytes32"}],"outputs":[{"name":"amountA","type":"uint256","internalType":"uint256"},{"name":"amountB","type":"uint256","internalType":"uint256"}],"stateMutability":"nonpayable"},{"type":"function","name":"swapETHForExactTokens","inputs":[{"name":"amountOut","type":"uint256","internalType":"uint256"},{"name":"path","type":"address[]","internalType":"address[]"},{"name":"to","type":"address","internalType":"address"},{"name":"deadline","type":"uint256","internalType":"uint256"}],"outputs":[{"name":"amounts","type":"uint256[]","internalType":"uint256[]"}],"stateMutability":"payable"},{"type":"function","name":"swapExactETHForTokens","inputs":[{"name":"amountOutMin","type":"uint256","internalType":"uint256"},{"name":"path","type":"address[]","internalType":"address[]"},{"name":"to","type":"address","internalType":"address"},{"name":"deadline","type":"uint256","internalType":"uint256"}],"outputs":[{"name":"amounts","type":"uint256[]","internalType":"uint256[]"}],"stateMutability":"payable"},{"type":"function","name":"swapExactETHForTokensSupportingFeeOnTransferTokens","inputs":[{"name":"amountOutMin","type":"uint256","internalType":"uint256"},{"name":"path","type":"address[]","internalType":"address[]"},{"name":"to","type":"address","internalType":"address"},{"name":"deadline","type":"uint256","internalType":"uint256"}],"outputs":[],"stateMutability":"payable"},{"type":"function","name":"swapExactTokensForETH","inputs":[{"name":"amountIn","type":"uint256","internalType":"uint256"},{"name":"amountOutMin","type":"uint256","internalType":"uint256"},{"name":"path","type":"address[]","internalType":"address[]"},{"name":"to","type":"address","internalType":"address"},{"name":"deadline","type":"uint256","internalType":"uint256"}],"outputs":[{"name":"amounts","type":"uint256[]","internalType":"uint256[]"}],"stateMutability":"nonpayable"},{"type":"function","name":"swapExactTokensForETHSupportingFeeOnTransferTokens","inputs":[{"name":"amountIn","type":"uint256","internalType":"uint256"},{"name":"amountOutMin","type":"uint256","internalType":"uint256"},{"name":"path","type":"address[]","internalType":"address[]"},{"name":"to","type":"address","internalType":"address"},{"name":"deadline","type":"uint256","internalType":"uint256"}],"outputs":[],"stateMutability":"nonpayable"},{"type":"function","name":"swapExactTokensForTokens","inputs":[{"name":"amountIn","type":"uint256","internalType":"uint256"},{"name":"amountOutMin","type":"uint256","internalType":"uint256"},{"name":"path","type":"address[]","internalType":"address[]"},{"name":"to","type":"address","internalType":"address"},{"name":"deadline","type":"uint256","internalType":"uint256"}],"outputs":[{"name":"amounts","type":"uint256[]","internalType":"uint256[]"}],"stateMutability":"nonpayable"},{"type":"function","name":"swapExactTokensForTokensSupportingFeeOnTransferTokens","inputs":[{"name":"amountIn","type":"uint256","internalType":"uint256"},{"name":"amountOutMin","type":"uint256","internalType":"uint256"},{"name":"path","type":"address[]","internalType":"address[]"},{"name":"to","type":"address","internalType":"address"},{"name":"deadline","type":"uint256","internalType":"uint256"}],"outputs":[],"stateMutability":"nonpayable"},{"type":"function","name":"swapTokensForExactETH","inputs":[{"name":"amountOut","type":"uint256","internalType":"uint256"},{"name":"amountInMax","type":"uint256","internalType":"uint256"},{"name":"path","type":"address[]","internalType":"address[]"},{"name":"to","type":"address","internalType":"address"},{"name":"deadline","type":"uint256","internalType":"uint256"}],"outputs":[{"name":"amounts","type":"uint256[]","internalType":"uint256[]"}],"stateMutability":"nonpayable"},{"type":"function","name":"swapTokensForExactTokens","inputs":[{"name":"amountOut","type":"uint256","internalType":"uint256"},{"name":"amountInMax","type":"uint256","internalType":"uint256"},{"name":"path","type":"address[]","internalType":"address[]"},{"name":"to","type":"address","internalType":"address"},{"name":"deadline","type":"uint256","internalType":"uint256"}],"outputs":[{"name":"amounts","type":"uint256[]","internalType":"uint256[]"}],"stateMutability":"nonpayable"}],"bytecode":{"object":"0x60c0604052348015600f57600080fd5b50604051614257380380614257833981016040819052602c91605d565b6001600160a01b039182166080521660a052608b565b80516001600160a01b0381168114605857600080fd5b919050565b60008060408385031215606f57600080fd5b6076836042565b91506082602084016042565b90509250929050565b60805160a05161403b61021c6000396000818161015f0152818161036d01528181610522015281816105710152818161062d0152818161085001528181610b8901528181610cc401528181611015015281816110f8015281816111a30152818161123601528181611354015281816113e20152818161162a015281816116e201528181611773015281816117f00152818161186401528181611ca801528181611e9901528181611eef01528181611f2301528181611fb8015281816120f101528181612203015261229101526000818161042c015281816106a90152818161077b015281816109360152818161096f01528181610a6601528181610c0501528181610ca201528181610dd9015281816112b1015281816114140152818161155f0152818161189601528181611ab201528181611c5601528181611c8601528181611daf01528181611ecd0152818161216c015281816122c301528181612b6e01528181612bbe01528181612e820152818161302b0152818161338a0152818161342c01526134a3015261403b6000f3fe60806040526004361061014f5760003560e01c80638803dbee116100b6578063c45a01551161006f578063c45a01551461041a578063d06ca61f1461044e578063ded9382a1461046e578063e8e337001461048e578063f305d719146104c9578063fb3bdb41146104dc57600080fd5b80638803dbee1461033b578063ad5c46481461035b578063ad615dec146103a7578063af2979eb146103c7578063b6f9de95146103e7578063baa2abde146103fa57600080fd5b80634a25d94a116101085780634a25d94a146102885780635b0d5984146102a85780635c11d795146102c8578063791ac947146102e85780637ff36ab51461030857806385f8c2591461031b57600080fd5b806302751cec14610193578063054d50d4146101cd57806318cbafe5146101fb5780631f00ca74146102285780632195995c1461024857806338ed17391461026857600080fd5b3661018e57336001600160a01b037f0000000000000000000000000000000000000000000000000000000000000000161461018c5761018c61364a565b005b600080fd5b34801561019f57600080fd5b506101b36101ae366004613688565b6104ef565b604080519283526020830191909152015b60405180910390f35b3480156101d957600080fd5b506101ed6101e83660046136e6565b6105eb565b6040519081526020016101c4565b34801561020757600080fd5b5061021b610216366004613757565b610600565b6040516101c491906137ca565b34801561023457600080fd5b5061021b610243366004613823565b61092f565b34801561025457600080fd5b506101b361026336600461391e565b610965565b34801561027457600080fd5b5061021b610283366004613757565b610a3e565b34801561029457600080fd5b5061021b6102a3366004613757565b610b5c565b3480156102b457600080fd5b506101ed6102c33660046139cd565b610c9a565b3480156102d457600080fd5b5061018c6102e3366004613757565b610d87565b3480156102f457600080fd5b5061018c610303366004613757565b610fea565b61021b610316366004613a66565b611211565b34801561032757600080fd5b506101ed6103363660046136e6565b61152a565b34801561034757600080fd5b5061021b610356366004613757565b611537565b34801561036757600080fd5b5061038f7f000000000000000000000000000000000000000000000000000000000000000081565b6040516001600160a01b0390911681526020016101c4565b3480156103b357600080fd5b506101ed6103c23660046136e6565b6115f4565b3480156103d357600080fd5b506101ed6103e2366004613688565b611601565b61018c6103f5366004613a66565b611750565b34801561040657600080fd5b506101b3610415366004613acd565b611a87565b34801561042657600080fd5b5061038f7f000000000000000000000000000000000000000000000000000000000000000081565b34801561045a57600080fd5b5061021b610469366004613823565b611c4f565b34801561047a57600080fd5b506101b36104893660046139cd565b611c7c565b34801561049a57600080fd5b506104ae6104a9366004613b40565b611d6f565b604080519384526020840192909252908201526060016101c4565b6104ae6104d7366004613688565b611e6d565b61021b6104ea366004613a66565b6120cc565b600080824281101561051c5760405162461bcd60e51b815260040161051390613bbc565b60405180910390fd5b61054b897f00000000000000000000000000000000000000000000000000000000000000008a8a8a308a611a87565b909350915061055b89868561241b565b604051632e1a7d4d60e01b8152600481018390527f00000000000000000000000000000000000000000000000000000000000000006001600160a01b031690632e1a7d4d90602401600060405180830381600087803b1580156105bd57600080fd5b505af11580156105d1573d6000803e3d6000fd5b505050506105df858361254c565b50965096945050505050565b60006105f884848461262b565b949350505050565b606081428110156106235760405162461bcd60e51b815260040161051390613bbc565b6001600160a01b037f000000000000000000000000000000000000000000000000000000000000000016868661065a600182613c09565b81811061066957610669613c1c565b905060200201602081019061067e9190613c32565b6001600160a01b0316146106a45760405162461bcd60e51b815260040161051390613c56565b6107027f00000000000000000000000000000000000000000000000000000000000000008988888080602002602001604051908101604052809392919081815260200183836020028082843760009201919091525061270a92505050565b91508682600184516107149190613c09565b8151811061072457610724613c1c565b6020026020010151101561074a5760405162461bcd60e51b815260040161051390613c8d565b61080f8686600081811061076057610760613c1c565b90506020020160208101906107759190613c32565b336107ef7f00000000000000000000000000000000000000000000000000000000000000008a8a60008181106107ad576107ad613c1c565b90506020020160208101906107c29190613c32565b8b8b60018181106107d5576107d5613c1c565b90506020020160208101906107ea9190613c32565b612889565b8560008151811061080257610802613c1c565b602002602001015161294d565b61084e82878780806020026020016040519081016040528093929190818152602001838360200280828437600092019190915250309250612a8b915050565b7f00000000000000000000000000000000000000000000000000000000000000006001600160a01b0316632e1a7d4d836001855161088c9190613c09565b8151811061089c5761089c613c1c565b60200260200101516040518263ffffffff1660e01b81526004016108c291815260200190565b600060405180830381600087803b1580156108dc57600080fd5b505af11580156108f0573d6000803e3d6000fd5b505050506109248483600185516109079190613c09565b8151811061091757610917613c1c565b602002602001015161254c565b509695505050505050565b606061095c7f00000000000000000000000000000000000000000000000000000000000000008484612c8c565b90505b92915050565b60008060006109957f00000000000000000000000000000000000000000000000000000000000000008f8f612889565b90506000876109a4578c6109a8565b6000195b60405163d505accf60e01b81529091506001600160a01b0383169063d505accf906109e3903390309086908f908e908e908e90600401613cd8565b600060405180830381600087803b1580156109fd57600080fd5b505af1158015610a11573d6000803e3d6000fd5b50505050610a248f8f8f8f8f8f8f611a87565b809450819550505050509b509b9950505050505050505050565b60608142811015610a615760405162461bcd60e51b815260040161051390613bbc565b610abf7f00000000000000000000000000000000000000000000000000000000000000008988888080602002602001604051908101604052809392919081815260200183836020028082843760009201919091525061270a92505050565b9150868260018451610ad19190613c09565b81518110610ae157610ae1613c1c565b60200260200101511015610b075760405162461bcd60e51b815260040161051390613c8d565b610b1d8686600081811061076057610760613c1c565b61092482878780806020026020016040519081016040528093929190818152602001838360200280828437600092019190915250899250612a8b915050565b60608142811015610b7f5760405162461bcd60e51b815260040161051390613bbc565b6001600160a01b037f0000000000000000000000000000000000000000000000000000000000000000168686610bb6600182613c09565b818110610bc557610bc5613c1c565b9050602002016020810190610bda9190613c32565b6001600160a01b031614610c005760405162461bcd60e51b815260040161051390613c56565b610c5e7f000000000000000000000000000000000000000000000000000000000000000089888880806020026020016040519081016040528093929190818152602001838360200280828437600092019190915250612c8c92505050565b91508682600081518110610c7457610c74613c1c565b6020026020010151111561074a5760405162461bcd60e51b815260040161051390613d19565b600080610ce87f00000000000000000000000000000000000000000000000000000000000000008d7f0000000000000000000000000000000000000000000000000000000000000000612889565b9050600086610cf7578b610cfb565b6000195b60405163d505accf60e01b81529091506001600160a01b0383169063d505accf90610d36903390309086908e908d908d908d90600401613cd8565b600060405180830381600087803b158015610d5057600080fd5b505af1158015610d64573d6000803e3d6000fd5b50505050610d768d8d8d8d8d8d611601565b9d9c50505050505050505050505050565b8042811015610da85760405162461bcd60e51b815260040161051390613bbc565b610e3985856000818110610dbe57610dbe613c1c565b9050602002016020810190610dd39190613c32565b33610e337f000000000000000000000000000000000000000000000000000000000000000089896000818110610e0b57610e0b613c1c565b9050602002016020810190610e209190613c32565b8a8a60018181106107d5576107d5613c1c565b8a61294d565b60008585610e48600182613c09565b818110610e5757610e57613c1c565b9050602002016020810190610e6c9190613c32565b6040516370a0823160e01b81526001600160a01b03868116600483015291909116906370a0823190602401602060405180830381865afa158015610eb4573d6000803e3d6000fd5b505050506040513d601f19601f82011682018060405250810190610ed89190613d60565b9050610f18868680806020026020016040519081016040528093929190818152602001838360200280828437600092019190915250889250612e0d915050565b86818787610f27600182613c09565b818110610f3657610f36613c1c565b9050602002016020810190610f4b9190613c32565b6040516370a0823160e01b81526001600160a01b03888116600483015291909116906370a08231906024015b602060405180830381865afa158015610f94573d6000803e3d6000fd5b505050506040513d601f19601f82011682018060405250810190610fb89190613d60565b610fc29190613c09565b1015610fe05760405162461bcd60e51b815260040161051390613c8d565b5050505050505050565b804281101561100b5760405162461bcd60e51b815260040161051390613bbc565b6001600160a01b037f0000000000000000000000000000000000000000000000000000000000000000168585611042600182613c09565b81811061105157611051613c1c565b90506020020160208101906110669190613c32565b6001600160a01b03161461108c5760405162461bcd60e51b815260040161051390613c56565b6110a285856000818110610dbe57610dbe613c1c565b6110e0858580806020026020016040519081016040528093929190818152602001838360200280828437600092019190915250309250612e0d915050565b6040516370a0823160e01b81523060048201526000907f00000000000000000000000000000000000000000000000000000000000000006001600160a01b0316906370a0823190602401602060405180830381865afa158015611147573d6000803e3d6000fd5b505050506040513d601f19601f8201168201806040525081019061116b9190613d60565b90508681101561118d5760405162461bcd60e51b815260040161051390613c8d565b604051632e1a7d4d60e01b8152600481018290527f00000000000000000000000000000000000000000000000000000000000000006001600160a01b031690632e1a7d4d90602401600060405180830381600087803b1580156111ef57600080fd5b505af1158015611203573d6000803e3d6000fd5b50505050610fe0848261254c565b606081428110156112345760405162461bcd60e51b815260040161051390613bbc565b7f00000000000000000000000000000000000000000000000000000000000000006001600160a01b03168686600081811061127157611271613c1c565b90506020020160208101906112869190613c32565b6001600160a01b0316146112ac5760405162461bcd60e51b815260040161051390613c56565b61130a7f00000000000000000000000000000000000000000000000000000000000000003488888080602002602001604051908101604052809392919081815260200183836020028082843760009201919091525061270a92505050565b915086826001845161131c9190613c09565b8151811061132c5761132c613c1c565b602002602001015110156113525760405162461bcd60e51b815260040161051390613c8d565b7f00000000000000000000000000000000000000000000000000000000000000006001600160a01b031663d0e30db08360008151811061139457611394613c1c565b60200260200101516040518263ffffffff1660e01b81526004016000604051808303818588803b1580156113c757600080fd5b505af11580156113db573d6000803e3d6000fd5b50505050507f00000000000000000000000000000000000000000000000000000000000000006001600160a01b031663a9059cbb6114467f000000000000000000000000000000000000000000000000000000000000000089896000818110610e0b57610e0b613c1c565b8460008151811061145957611459613c1c565b60200260200101516040518363ffffffff1660e01b81526004016114929291906001600160a01b03929092168252602082015260400190565b6020604051808303816000875af11580156114b1573d6000803e3d6000fd5b505050506040513d601f19601f820116820180604052508101906114d59190613d79565b6114e1576114e161364a565b61152082878780806020026020016040519081016040528093929190818152602001838360200280828437600092019190915250899250612a8b915050565b5095945050505050565b60006105f88484846130e0565b6060814281101561155a5760405162461bcd60e51b815260040161051390613bbc565b6115b87f000000000000000000000000000000000000000000000000000000000000000089888880806020026020016040519081016040528093929190818152602001838360200280828437600092019190915250612c8c92505050565b915086826000815181106115ce576115ce613c1c565b60200260200101511115610b075760405162461bcd60e51b815260040161051390613d19565b60006105f88484846131c5565b600081428110156116245760405162461bcd60e51b815260040161051390613bbc565b611653887f00000000000000000000000000000000000000000000000000000000000000008989893089611a87565b6040516370a0823160e01b81523060048201529093506116cc9150899086906001600160a01b038316906370a0823190602401602060405180830381865afa1580156116a3573d6000803e3d6000fd5b505050506040513d601f19601f820116820180604052508101906116c79190613d60565b61241b565b604051632e1a7d4d60e01b8152600481018390527f00000000000000000000000000000000000000000000000000000000000000006001600160a01b031690632e1a7d4d90602401600060405180830381600087803b15801561172e57600080fd5b505af1158015611742573d6000803e3d6000fd5b50505050610924848361254c565b80428110156117715760405162461bcd60e51b815260040161051390613bbc565b7f00000000000000000000000000000000000000000000000000000000000000006001600160a01b0316858560008181106117ae576117ae613c1c565b90506020020160208101906117c39190613c32565b6001600160a01b0316146117e95760405162461bcd60e51b815260040161051390613c56565b60003490507f00000000000000000000000000000000000000000000000000000000000000006001600160a01b031663d0e30db0826040518263ffffffff1660e01b81526004016000604051808303818588803b15801561184957600080fd5b505af115801561185d573d6000803e3d6000fd5b50505050507f00000000000000000000000000000000000000000000000000000000000000006001600160a01b031663a9059cbb6118c87f000000000000000000000000000000000000000000000000000000000000000089896000818110610e0b57610e0b613c1c565b6040516001600160e01b031960e084901b1681526001600160a01b039091166004820152602481018490526044016020604051808303816000875af1158015611915573d6000803e3d6000fd5b505050506040513d601f19601f820116820180604052508101906119399190613d79565b6119455761194561364a565b60008686611954600182613c09565b81811061196357611963613c1c565b90506020020160208101906119789190613c32565b6040516370a0823160e01b81526001600160a01b03878116600483015291909116906370a0823190602401602060405180830381865afa1580156119c0573d6000803e3d6000fd5b505050506040513d601f19601f820116820180604052508101906119e49190613d60565b9050611a24878780806020026020016040519081016040528093929190818152602001838360200280828437600092019190915250899250612e0d915050565b87818888611a33600182613c09565b818110611a4257611a42613c1c565b9050602002016020810190611a579190613c32565b6040516370a0823160e01b81526001600160a01b03898116600483015291909116906370a0823190602401610f77565b6000808242811015611aab5760405162461bcd60e51b815260040161051390613bbc565b6000611ad87f00000000000000000000000000000000000000000000000000000000000000008c8c612889565b6040516323b872dd60e01b81523360048201526001600160a01b03821660248201819052604482018c90529192506323b872dd906064016020604051808303816000875af1158015611b2e573d6000803e3d6000fd5b505050506040513d601f19601f82011682018060405250810190611b529190613d79565b5060405163226bf2d160e21b81526001600160a01b03878116600483015260009182918416906389afcb449060240160408051808303816000875af1158015611b9f573d6000803e3d6000fd5b505050506040513d601f19601f82011682018060405250810190611bc39190613d96565b915091506000611bd38e8e613265565b509050806001600160a01b03168e6001600160a01b031614611bf6578183611bf9565b82825b90975095508a871015611c1e5760405162461bcd60e51b815260040161051390613dba565b89861015611c3e5760405162461bcd60e51b815260040161051390613e00565b505050505097509795505050505050565b606061095c7f0000000000000000000000000000000000000000000000000000000000000000848461270a565b6000806000611ccc7f00000000000000000000000000000000000000000000000000000000000000008e7f0000000000000000000000000000000000000000000000000000000000000000612889565b9050600087611cdb578c611cdf565b6000195b60405163d505accf60e01b81529091506001600160a01b0383169063d505accf90611d1a903390309086908f908e908e908e90600401613cd8565b600060405180830381600087803b158015611d3457600080fd5b505af1158015611d48573d6000803e3d6000fd5b50505050611d5a8e8e8e8e8e8e6104ef565b909f909e509c50505050505050505050505050565b60008060008342811015611d955760405162461bcd60e51b815260040161051390613bbc565b611da38c8c8c8c8c8c61335c565b90945092506000611dd57f00000000000000000000000000000000000000000000000000000000000000008e8e612889565b9050611de38d33838861294d565b611def8c33838761294d565b6040516335313c2160e11b81526001600160a01b038881166004830152821690636a627842906024016020604051808303816000875af1158015611e37573d6000803e3d6000fd5b505050506040513d601f19601f82011682018060405250810190611e5b9190613d60565b92505050985098509895505050505050565b60008060008342811015611e935760405162461bcd60e51b815260040161051390613bbc565b611ec18a7f00000000000000000000000000000000000000000000000000000000000000008b348c8c61335c565b90945092506000611f137f00000000000000000000000000000000000000000000000000000000000000008c7f0000000000000000000000000000000000000000000000000000000000000000612889565b9050611f218b33838861294d565b7f00000000000000000000000000000000000000000000000000000000000000006001600160a01b031663d0e30db0856040518263ffffffff1660e01b81526004016000604051808303818588803b158015611f7c57600080fd5b505af1158015611f90573d6000803e3d6000fd5b505060405163a9059cbb60e01b81526001600160a01b038581166004830152602482018990527f000000000000000000000000000000000000000000000000000000000000000016935063a9059cbb925060440190506020604051808303816000875af1158015612005573d6000803e3d6000fd5b505050506040513d601f19601f820116820180604052508101906120299190613d79565b6120355761203561364a565b6040516335313c2160e11b81526001600160a01b038881166004830152821690636a627842906024016020604051808303816000875af115801561207d573d6000803e3d6000fd5b505050506040513d601f19601f820116820180604052508101906120a19190613d60565b9250833411156120be576120be336120b98634613c09565b61254c565b505096509650969350505050565b606081428110156120ef5760405162461bcd60e51b815260040161051390613bbc565b7f00000000000000000000000000000000000000000000000000000000000000006001600160a01b03168686600081811061212c5761212c613c1c565b90506020020160208101906121419190613c32565b6001600160a01b0316146121675760405162461bcd60e51b815260040161051390613c56565b6121c57f000000000000000000000000000000000000000000000000000000000000000088888880806020026020016040519081016040528093929190818152602001838360200280828437600092019190915250612c8c92505050565b915034826000815181106121db576121db613c1c565b602002602001015111156122015760405162461bcd60e51b815260040161051390613d19565b7f00000000000000000000000000000000000000000000000000000000000000006001600160a01b031663d0e30db08360008151811061224357612243613c1c565b60200260200101516040518263ffffffff1660e01b81526004016000604051808303818588803b15801561227657600080fd5b505af115801561228a573d6000803e3d6000fd5b50505050507f00000000000000000000000000000000000000000000000000000000000000006001600160a01b031663a9059cbb6122f57f000000000000000000000000000000000000000000000000000000000000000089896000818110610e0b57610e0b613c1c565b8460008151811061230857612308613c1c565b60200260200101516040518363ffffffff1660e01b81526004016123419291906001600160a01b03929092168252602082015260400190565b6020604051808303816000875af1158015612360573d6000803e3d6000fd5b505050506040513d601f19601f820116820180604052508101906123849190613d79565b6123905761239061364a565b6123cf82878780806020026020016040519081016040528093929190818152602001838360200280828437600092019190915250899250612a8b915050565b816000815181106123e2576123e2613c1c565b602002602001015134111561152057611520338360008151811061240857612408613c1c565b6020026020010151346120b99190613c09565b604080516001600160a01b038481166024830152604480830185905283518084039091018152606490920183526020820180516001600160e01b031663a9059cbb60e01b17905291516000928392908716916124779190613e6a565b6000604051808303816000865af19150503d80600081146124b4576040519150601f19603f3d011682016040523d82523d6000602084013e6124b9565b606091505b50915091508180156124e35750805115806124e35750808060200190518101906124e39190613d79565b6125455760405162461bcd60e51b815260206004820152602d60248201527f5472616e7366657248656c7065723a3a736166655472616e736665723a20747260448201526c185b9cd9995c8819985a5b1959609a1b6064820152608401610513565b5050505050565b604080516000808252602082019092526001600160a01b0384169083906040516125769190613e6a565b60006040518083038185875af1925050503d80600081146125b3576040519150601f19603f3d011682016040523d82523d6000602084013e6125b8565b606091505b50509050806126265760405162461bcd60e51b815260206004820152603460248201527f5472616e7366657248656c7065723a3a736166655472616e736665724554483a60448201527308115512081d1c985b9cd9995c8819985a5b195960621b6064820152608401610513565b505050565b60008084116126905760405162461bcd60e51b815260206004820152602b60248201527f556e697377617056324c6962726172793a20494e53554646494349454e545f4960448201526a1394155517d05353d5539560aa1b6064820152608401610513565b6000831180156126a05750600082115b6126bc5760405162461bcd60e51b815260040161051390613e86565b60006126ca856103e5613ece565b905060006126d88483613ece565b90506000826126e9876103e8613ece565b6126f39190613ee5565b90506126ff8183613ef8565b979650505050505050565b606060028251101561275e5760405162461bcd60e51b815260206004820152601e60248201527f556e697377617056324c6962726172793a20494e56414c49445f5041544800006044820152606401610513565b815167ffffffffffffffff8111156127785761277861380d565b6040519080825280602002602001820160405280156127a1578160200160208202803683370190505b50905082816000815181106127b8576127b8613c1c565b60200260200101818152505060005b600183516127d59190613c09565b81101561288157600080612828878685815181106127f5576127f5613c1c565b60200260200101518786600161280b9190613ee5565b8151811061281b5761281b613c1c565b6020026020010151613580565b9150915061285084848151811061284157612841613c1c565b6020026020010151838361262b565b8461285c856001613ee5565b8151811061286c5761286c613c1c565b602090810291909101015250506001016127c7565b509392505050565b60008060006128988585613265565b604080516bffffffffffffffffffffffff19606085811b821660208085019190915285821b83166034850152845180850360280181526048850190955284519401939093206001600160f81b03196068840152928b901b166069820152607d8101919091527f2fe1c854d18cd3775abb5edc770bee1bd210a89b27ce5bcf166f61777e2306a4609d820152919350915060bd0160408051601f1981840301815291905280516020909101209695505050505050565b604080516001600160a01b0385811660248301528481166044830152606480830185905283518084039091018152608490920183526020820180516001600160e01b03166323b872dd60e01b17905291516000928392908816916129b19190613e6a565b6000604051808303816000865af19150503d80600081146129ee576040519150601f19603f3d011682016040523d82523d6000602084013e6129f3565b606091505b5091509150818015612a1d575080511580612a1d575080806020019051810190612a1d9190613d79565b612a835760405162461bcd60e51b815260206004820152603160248201527f5472616e7366657248656c7065723a3a7472616e7366657246726f6d3a207472604482015270185b9cd9995c919c9bdb4819985a5b1959607a1b6064820152608401610513565b505050505050565b60005b60018351612a9c9190613c09565b811015612c8657600080848381518110612ab857612ab8613c1c565b602002602001015185846001612ace9190613ee5565b81518110612ade57612ade613c1c565b6020026020010151915091506000612af68383613265565b509050600087612b07866001613ee5565b81518110612b1757612b17613c1c565b60200260200101519050600080836001600160a01b0316866001600160a01b031614612b4557826000612b49565b6000835b91509150600060028a51612b5d9190613c09565b8810612b695788612bb7565b612bb77f0000000000000000000000000000000000000000000000000000000000000000878c612b9a8c6002613ee5565b81518110612baa57612baa613c1c565b6020026020010151612889565b9050612be47f00000000000000000000000000000000000000000000000000000000000000008888612889565b6001600160a01b031663022c0d9f84848460006040519080825280601f01601f191660200182016040528015612c21576020820181803683370190505b506040518563ffffffff1660e01b8152600401612c419493929190613f1a565b600060405180830381600087803b158015612c5b57600080fd5b505af1158015612c6f573d6000803e3d6000fd5b505060019099019850612a8e975050505050505050565b50505050565b6060600282511015612ce05760405162461bcd60e51b815260206004820152601e60248201527f556e697377617056324c6962726172793a20494e56414c49445f5041544800006044820152606401610513565b815167ffffffffffffffff811115612cfa57612cfa61380d565b604051908082528060200260200182016040528015612d23578160200160208202803683370190505b509050828160018351612d369190613c09565b81518110612d4657612d46613c1c565b602002602001018181525050600060018351612d629190613c09565b90505b801561288157600080612da88786612d7e600187613c09565b81518110612d8e57612d8e613c1c565b602002602001015187868151811061281b5761281b613c1c565b91509150612dd0848481518110612dc157612dc1613c1c565b602002602001015183836130e0565b84612ddc600186613c09565b81518110612dec57612dec613c1c565b60200260200101818152505050508080612e0590613f6a565b915050612d65565b60005b60018351612e1e9190613c09565b81101561262657600080848381518110612e3a57612e3a613c1c565b602002602001015185846001612e509190613ee5565b81518110612e6057612e60613c1c565b6020026020010151915091506000612e788383613265565b5090506000612ea87f00000000000000000000000000000000000000000000000000000000000000008585612889565b9050600080600080846001600160a01b0316630902f1ac6040518163ffffffff1660e01b8152600401606060405180830381865afa158015612eee573d6000803e3d6000fd5b505050506040513d601f19601f82011682018060405250810190612f129190613f98565b506001600160701b031691506001600160701b03169150600080876001600160a01b03168a6001600160a01b031614612f4c578284612f4f565b83835b6040516370a0823160e01b81526001600160a01b038a8116600483015292945090925083918c16906370a0823190602401602060405180830381865afa158015612f9d573d6000803e3d6000fd5b505050506040513d601f19601f82011682018060405250810190612fc19190613d60565b612fcb9190613c09565b9550612fd886838361262b565b945050505050600080856001600160a01b0316886001600160a01b03161461300257826000613006565b6000835b91509150600060028c5161301a9190613c09565b8a10613026578a613057565b6130577f0000000000000000000000000000000000000000000000000000000000000000898e612b9a8e6002613ee5565b6040805160008152602081019182905263022c0d9f60e01b9091529091506001600160a01b0387169063022c0d9f906130999086908690869060248101613f1a565b600060405180830381600087803b1580156130b357600080fd5b505af11580156130c7573d6000803e3d6000fd5b50506001909b019a50612e109950505050505050505050565b60008084116131465760405162461bcd60e51b815260206004820152602c60248201527f556e697377617056324c6962726172793a20494e53554646494349454e545f4f60448201526b155514155517d05353d5539560a21b6064820152608401610513565b6000831180156131565750600082115b6131725760405162461bcd60e51b815260040161051390613e86565b600061317e8585613ece565b61318a906103e8613ece565b905060006131988685613c09565b6131a4906103e5613ece565b90506131b08183613ef8565b6131bb906001613ee5565b9695505050505050565b60008084116132245760405162461bcd60e51b815260206004820152602560248201527f556e697377617056324c6962726172793a20494e53554646494349454e545f416044820152641353d5539560da1b6064820152608401610513565b6000831180156132345750600082115b6132505760405162461bcd60e51b815260040161051390613e86565b8261325b8386613ece565b6105f89190613ef8565b600080826001600160a01b0316846001600160a01b0316036132d75760405162461bcd60e51b815260206004820152602560248201527f556e697377617056324c6962726172793a204944454e544943414c5f41444452604482015264455353455360d81b6064820152608401610513565b826001600160a01b0316846001600160a01b0316106132f75782846132fa565b83835b90925090506001600160a01b0382166133555760405162461bcd60e51b815260206004820152601e60248201527f556e697377617056324c6962726172793a205a45524f5f4144445245535300006044820152606401610513565b9250929050565b60405163e6a4390560e01b81526001600160a01b0387811660048301528681166024830152600091829182917f00000000000000000000000000000000000000000000000000000000000000009091169063e6a4390590604401602060405180830381865afa1580156133d3573d6000803e3d6000fd5b505050506040513d601f19601f820116820180604052508101906133f79190613fe8565b6001600160a01b03160361349b576040516364e329cb60e11b81526001600160a01b03898116600483015288811660248301527f0000000000000000000000000000000000000000000000000000000000000000169063c9c65396906044016020604051808303816000875af1158015613475573d6000803e3d6000fd5b505050506040513d601f19601f820116820180604052508101906134999190613fe8565b505b6000806134c97f00000000000000000000000000000000000000000000000000000000000000008b8b613580565b915091508160001480156134db575080155b156134eb57879350869250613573565b60006134f88984846131c5565b905087811161352c57858110156135215760405162461bcd60e51b815260040161051390613e00565b889450925082613571565b60006135398984866131c5565b90508981111561354b5761354b61364a565b8781101561356b5760405162461bcd60e51b815260040161051390613dba565b94508793505b505b5050965096945050505050565b600080600061358f8585613265565b5090506000806135a0888888612889565b6001600160a01b0316630902f1ac6040518163ffffffff1660e01b8152600401606060405180830381865afa1580156135dd573d6000803e3d6000fd5b505050506040513d601f19601f820116820180604052508101906136019190613f98565b506001600160701b031691506001600160701b03169150826001600160a01b0316876001600160a01b03161461363857808261363b565b81815b90999098509650505050505050565b634e487b7160e01b600052600160045260246000fd5b6001600160a01b038116811461367557600080fd5b50565b803561368381613660565b919050565b60008060008060008060c087890312156136a157600080fd5b86356136ac81613660565b955060208701359450604087013593506060870135925060808701356136d181613660565b9598949750929591949360a090920135925050565b6000806000606084860312156136fb57600080fd5b505081359360208301359350604090920135919050565b60008083601f84011261372457600080fd5b50813567ffffffffffffffff81111561373c57600080fd5b6020830191508360208260051b850101111561335557600080fd5b60008060008060008060a0878903121561377057600080fd5b8635955060208701359450604087013567ffffffffffffffff81111561379557600080fd5b6137a189828a01613712565b90955093505060608701356137b581613660565b95989497509295919493608090920135925050565b602080825282518282018190526000918401906040840190835b818110156138025783518352602093840193909201916001016137e4565b509095945050505050565b634e487b7160e01b600052604160045260246000fd5b6000806040838503121561383657600080fd5b82359150602083013567ffffffffffffffff81111561385457600080fd5b8301601f8101851361386557600080fd5b803567ffffffffffffffff81111561387f5761387f61380d565b8060051b604051601f19603f830116810181811067ffffffffffffffff821117156138ac576138ac61380d565b6040529182526020818401810192908101888411156138ca57600080fd5b6020850194505b838510156138f0576138e285613678565b8152602094850194016138d1565b50809450505050509250929050565b801515811461367557600080fd5b803560ff8116811461368357600080fd5b60008060008060008060008060008060006101608c8e03121561394057600080fd5b8b3561394b81613660565b9a5060208c013561395b81613660565b995060408c0135985060608c0135975060808c0135965060a08c013561398081613660565b955060c08c0135945060e08c0135613997816138ff565b93506139a66101008d0161390d565b9a9d999c50979a969995989497509295919493610120830135935061014090920135919050565b6000806000806000806000806000806101408b8d0312156139ed57600080fd5b8a356139f881613660565b995060208b0135985060408b0135975060608b0135965060808b0135613a1d81613660565b955060a08b0135945060c08b0135613a34816138ff565b9350613a4260e08c0161390d565b999c989b509699959894979396509194610100810135936101209091013592509050565b600080600080600060808688031215613a7e57600080fd5b85359450602086013567ffffffffffffffff811115613a9c57600080fd5b613aa888828901613712565b9095509350506040860135613abc81613660565b949793965091946060013592915050565b600080600080600080600060e0888a031215613ae857600080fd5b8735613af381613660565b96506020880135613b0381613660565b955060408801359450606088013593506080880135925060a0880135613b2881613660565b96999598509396929591949193505060c09091013590565b600080600080600080600080610100898b031215613b5d57600080fd5b8835613b6881613660565b97506020890135613b7881613660565b965060408901359550606089013594506080890135935060a0890135925060c0890135613ba481613660565b979a969950949793969295919450919260e001359150565b60208082526018908201527f556e69737761705632526f757465723a20455850495245440000000000000000604082015260600190565b634e487b7160e01b600052601160045260246000fd5b8181038181111561095f5761095f613bf3565b634e487b7160e01b600052603260045260246000fd5b600060208284031215613c4457600080fd5b8135613c4f81613660565b9392505050565b6020808252601d908201527f556e69737761705632526f757465723a20494e56414c49445f50415448000000604082015260600190565b6020808252602b908201527f556e69737761705632526f757465723a20494e53554646494349454e545f4f5560408201526a1514155517d05353d5539560aa1b606082015260800190565b6001600160a01b0397881681529590961660208601526040850193909352606084019190915260ff16608083015260a082015260c081019190915260e00190565b60208082526027908201527f556e69737761705632526f757465723a204558434553534956455f494e50555460408201526617d05353d5539560ca1b606082015260800190565b600060208284031215613d7257600080fd5b5051919050565b600060208284031215613d8b57600080fd5b8151613c4f816138ff565b60008060408385031215613da957600080fd5b505080516020909101519092909150565b60208082526026908201527f556e69737761705632526f757465723a20494e53554646494349454e545f415f604082015265105353d5539560d21b606082015260800190565b60208082526026908201527f556e69737761705632526f757465723a20494e53554646494349454e545f425f604082015265105353d5539560d21b606082015260800190565b60005b83811015613e61578181015183820152602001613e49565b50506000910152565b60008251613e7c818460208701613e46565b9190910192915050565b60208082526028908201527f556e697377617056324c6962726172793a20494e53554646494349454e545f4c604082015267495155494449545960c01b606082015260800190565b808202811582820484141761095f5761095f613bf3565b8082018082111561095f5761095f613bf3565b600082613f1557634e487b7160e01b600052601260045260246000fd5b500490565b84815283602082015260018060a01b03831660408201526080606082015260008251806080840152613f538160a0850160208701613e46565b601f01601f19169190910160a00195945050505050565b600081613f7957613f79613bf3565b506000190190565b80516001600160701b038116811461368357600080fd5b600080600060608486031215613fad57600080fd5b613fb684613f81565b9250613fc460208501613f81565b9150604084015163ffffffff81168114613fdd57600080fd5b809150509250925092565b600060208284031215613ffa57600080fd5b8151613c4f8161366056fea26469706673582212206ce02a81709d136e61f6375191e6fe4e08121e88e18abb111c50f362e92cc38f64736f6c634300081a0033","linkReferences":{}},"methodIdentifiers":{"WETH()":"ad5c4648","addLiquidity(address,address,uint256,uint256,uint256,uint256,address,uint256)":"e8e33700","addLiquidityETH(address,uint256,uint256,uint256,address,uint256)":"f305d719","factory()":"c45a0155","getAmountIn(uint256,uint256,uint256)":"85f8c259","getAmountOut(uint256,uint256,uint256)":"054d50d4","getAmountsIn(uint256,address[])":"1f00ca74","getAmountsOut(uint256,address[])":"d06ca61f","quote(uint256,uint256,uint256)":"ad615dec","removeLiquidity(address,address,uint256,uint256,uint256,address,uint256)":"baa2abde","removeLiquidityETH(address,uint256,uint256,uint256,address,uint256)":"02751cec","removeLiquidityETHSupportingFeeOnTransferTokens(address,uint256,uint256,uint256,address,uint256)":"af2979eb","removeLiquidityETHWithPermit(address,uint256,uint256,uint256,address,uint256,bool,uint8,bytes32,bytes32)":"ded9382a","removeLiquidityETHWithPermitSupportingFeeOnTransferTokens(address,uint256,uint256,uint256,address,uint256,bool,uint8,bytes32,bytes32)":"5b0d5984","removeLiquidityWithPermit(address,address,uint256,uint256,uint256,address,uint256,bool,uint8,bytes32,bytes32)":"2195995c","swapETHForExactTokens(uint256,address[],address,uint256)":"fb3bdb41","swapExactETHForTokens(uint256,address[],address,uint256)":"7ff36ab5","swapExactETHForTokensSupportingFeeOnTransferTokens(uint256,address[],address,uint256)":"b6f9de95","swapExactTokensForETH(uint256,uint256,address[],address,uint256)":"18cbafe5","swapExactTokensForETHSupportingFeeOnTransferTokens(uint256,uint256,address[],address,uint256)":"791ac947","swapExactTokensForTokens(uint256,uint256,address[],address,uint256)":"38ed1739","swapExactTokensForTokensSupportingFeeOnTransferTokens(uint256,uint256,address[],address,uint256)":"5c11d795","swapTokensForExactETH(uint256,uint256,address[],address,uint256)":"4a25d94a","swapTokensForExactTokens(uint256,uint256,address[],address,uint256)":"8803dbee"},"id":65}