{"abi":[{"type":"constructor","inputs":[],"stateMutability":"nonpayable"},{"type":"function","name":"DOMAIN_SEPARATOR","inputs":[],"outputs":[{"name":"","type":"bytes32","internalType":"bytes32"}],"stateMutability":"view"},{"type":"function","name":"MINIMUM_LIQUIDITY","inputs":[],"outputs":[{"name":"","type":"uint256","internalType":"uint256"}],"stateMutability":"view"},{"type":"function","name":"PERMIT_TYPEHASH","inputs":[],"outputs":[{"name":"","type":"bytes32","internalType":"bytes32"}],"stateMutability":"view"},{"type":"function","name":"allowance","inputs":[{"name":"","type":"address","internalType":"address"},{"name":"","type":"address","internalType":"address"}],"outputs":[{"name":"","type":"uint256","internalType":"uint256"}],"stateMutability":"view"},{"type":"function","name":"approve","inputs":[{"name":"spender","type":"address","internalType":"address"},{"name":"value","type":"uint256","internalType":"uint256"}],"outputs":[{"name":"","type":"bool","internalType":"bool"}],"stateMutability":"nonpayable"},{"type":"function","name":"balanceOf","inputs":[{"name":"","type":"address","internalType":"address"}],"outputs":[{"name":"","type":"uint256","internalType":"uint256"}],"stateMutability":"view"},{"type":"function","name":"burn","inputs":[{"name":"to","type":"address","internalType":"address"}],"outputs":[{"name":"amount0","type":"uint256","internalType":"uint256"},{"name":"amount1","type":"uint256","internalType":"uint256"}],"stateMutability":"nonpayable"},{"type":"function","name":"decimals","inputs":[],"outputs":[{"name":"","type":"uint8","internalType":"uint8"}],"stateMutability":"view"},{"type":"function","name":"factory","inputs":[],"outputs":[{"name":"","type":"address","internalType":"address"}],"stateMutability":"view"},{"type":"function","name":"getReserves","inputs":[],"outputs":[{"name":"_reserve0","type":"uint112","internalType":"uint112"},{"name":"_reserve1","type":"uint112","internalType":"uint112"},{"name":"_blockTimestampLast","type":"uint32","internalType":"uint32"}],"stateMutability":"view"},{"type":"function","name":"initialize","inputs":[{"name":"_token0","type":"address","internalType":"address"},{"name":"_token1","type":"address","internalType":"address"}],"outputs":[],"stateMutability":"nonpayable"},{"type":"function","name":"kLast","inputs":[],"outputs":[{"name":"","type":"uint256","internalType":"uint256"}],"stateMutability":"view"},{"type":"function","name":"mint","inputs":[{"name":"to","type":"address","internalType":"address"}],"outputs":[{"name":"liquidity","type":"uint256","internalType":"uint256"}],"stateMutability":"nonpayable"},{"type":"function","name":"name","inputs":[],"outputs":[{"name":"","type":"string","internalType":"string"}],"stateMutability":"view"},{"type":"function","name":"nonces","inputs":[{"name":"","type":"address","internalType":"address"}],"outputs":[{"name":"","type":"uint256","internalType":"uint256"}],"stateMutability":"view"},{"type":"function","name":"permit","inputs":[{"name":"owner","type":"address","internalType":"address"},{"name":"spender","type":"address","internalType":"address"},{"name":"value","type":"uint256","internalType":"uint256"},{"name":"deadline","type":"uint256","internalType":"uint256"},{"name":"v","type":"uint8","internalType":"uint8"},{"name":"r","type":"bytes32","internalType":"bytes32"},{"name":"s","type":"bytes32","internalType":"bytes32"}],"outputs":[],"stateMutability":"nonpayable"},{"type":"function","name":"price0CumulativeLast","inputs":[],"outputs":[{"name":"","type":"uint256","internalType":"uint256"}],"stateMutability":"view"},{"type":"function","name":"price1CumulativeLast","inputs":[],"outputs":[{"name":"","type":"uint256","internalType":"uint256"}],"stateMutability":"view"},{"type":"function","name":"skim","inputs":[{"name":"to","type":"address","internalType":"address"}],"outputs":[],"stateMutability":"nonpayable"},{"type":"function","name":"swap","inputs":[{"name":"amount0Out","type":"uint256","internalType":"uint256"},{"name":"amount1Out","type":"uint256","internalType":"uint256"},{"name":"to","type":"address","internalType":"address"},{"name":"data","type":"bytes","internalType":"bytes"}],"outputs":[],"stateMutability":"nonpayable"},{"type":"function","name":"symbol","inputs":[],"outputs":[{"name":"","type":"string","internalType":"string"}],"stateMutability":"view"},{"type":"function","name":"sync","inputs":[],"outputs":[],"stateMutability":"nonpayable"},{"type":"function","name":"token0","inputs":[],"outputs":[{"name":"","type":"address","internalType":"address"}],"stateMutability":"view"},{"type":"function","name":"token1","inputs":[],"outputs":[{"name":"","type":"address","internalType":"address"}],"stateMutability":"view"},{"type":"function","name":"totalSupply","inputs":[],"outputs":[{"name":"","type":"uint256","internalType":"uint256"}],"stateMutability":"view"},{"type":"function","name":"transfer","inputs":[{"name":"to","type":"address","internalType":"address"},{"name":"value","type":"uint256","internalType":"uint256"}],"outputs":[{"name":"","type":"bool","internalType":"bool"}],"stateMutability":"nonpayable"},{"type":"function","name":"transferFrom","inputs":[{"name":"from","type":"address","internalType":"address"},{"name":"to","type":"address","internalType":"address"},{"name":"value","type":"uint256","internalType":"uint256"}],"outputs":[{"name":"","type":"bool","internalType":"bool"}],"stateMutability":"nonpayable"},{"type":"event","name":"Approval","inputs":[{"name":"owner","type":"address","indexed":true,"internalType":"address"},{"name":"spender","type":"address","indexed":true,"internalType":"address"},{"name":"value","type":"uint256","indexed":false,"internalType":"uint256"}],"anonymous":false},{"type":"event","name":"Burn","inputs":[{"name":"sender","type":"address","indexed":true,"internalType":"address"},{"name":"amount0","type":"uint256","indexed":false,"internalType":"uint256"},{"name":"amount1","type":"uint256","indexed":false,"internalType":"uint256"},{"name":"to","type":"address","indexed":true,"internalType":"address"}],"anonymous":false},{"type":"event","name":"Mint","inputs":[{"name":"sender","type":"address","indexed":true,"internalType":"address"},{"name":"amount0","type":"uint256","indexed":false,"internalType":"uint256"},{"name":"amount1","type":"uint256","indexed":false,"internalType":"uint256"}],"anonymous":false},{"type":"event","name":"Swap","inputs":[{"name":"sender","type":"address","indexed":true,"internalType":"address"},{"name":"amount0In","type":"uint256","indexed":false,"internalType":"uint256"},{"name":"amount1In","type":"uint256","indexed":false,"internalType":"uint256"},{"name":"amount0Out","type":"uint256","indexed":false,"internalType":"uint256"},{"name":"amount1Out","type":"uint256","indexed":false,"internalType":"uint256"},{"name":"to","type":"address","indexed":true,"internalType":"address"}],"anonymous":false},{"type":"event","name":"Sync","inputs":[{"name":"reserve0","type":"uint112","indexed":false,"internalType":"uint112"},{"name":"reserve1","type":"uint112","indexed":false,"internalType":"uint112"}],"anonymous":false},{"type":"event","name":"Transfer","inputs":[{"name":"from","type":"address","indexed":true,"internalType":"address"},{"name":"to","type":"address","indexed":true,"internalType":"address"},{"name":"value","type":"uint256","indexed":false,"internalType":"uint256"}],"anonymous":false}],"bytecode":{"object":"0x60806040526001600c5534801561001557600080fd5b50604080518082018252600a8152692ab734b9bbb0b8102b1960b11b6020918201528151808301835260018152603160f81b9082015281517f8b73c3c69bb8fe3d512ecc4cf759cc79239f7b179b0ffacaa9a75d522b39400f918101919091527fbfcc8ef98ffbf7b6c3fec7bf5185b566b9863e35a9d83acd49ad6824b5969738918101919091527fc89efdaa54c0f20c7adf612882df0950f5a951637e0307cdcb4c672f298b8bc660608201524660808201523060a082015260c00160408051601f198184030181529190528051602090910120600355600580546001600160a01b0319163317905561207b8061010e6000396000f3fe608060405234801561001057600080fd5b50600436106101a95760003560e01c80636a627842116100f9578063ba9a7a5611610097578063d21220a711610071578063d21220a714610408578063d505accf1461041b578063dd62ed3e1461042e578063fff6cae91461045957600080fd5b8063ba9a7a56146103d9578063bc25cf77146103e2578063c45a0155146103f557600080fd5b80637ecebe00116100d35780637ecebe001461035957806389afcb441461037957806395d89b41146103a1578063a9059cbb146103c657600080fd5b80636a6278421461031d57806370a08231146103305780637464fc3d1461035057600080fd5b806323b872dd116101665780633644e515116101405780633644e515146102ef578063485cc955146102f85780635909c0d51461030b5780635a3d54931461031457600080fd5b806323b872dd1461029b57806330adf81f146102ae578063313ce567146102d557600080fd5b8063022c0d9f146101ae57806306fdde03146101c35780630902f1ac14610202578063095ea7b3146102365780630dfe16811461025957806318160ddd14610284575b600080fd5b6101c16101bc366004611c2f565b610461565b005b6101ec6040518060400160405280600a8152602001692ab734b9bbb0b8102b1960b11b81525081565b6040516101f99190611ceb565b60405180910390f35b61020a61097b565b604080516001600160701b03948516815293909216602084015263ffffffff16908201526060016101f9565b610249610244366004611d1e565b6109a5565b60405190151581526020016101f9565b60065461026c906001600160a01b031681565b6040516001600160a01b0390911681526020016101f9565b61028d60005481565b6040519081526020016101f9565b6102496102a9366004611d4a565b6109bc565b61028d7f6e71edae12b1b97f4d1f60370fef10105fa2faae0126114a169c64845d6126c981565b6102dd601281565b60405160ff90911681526020016101f9565b61028d60035481565b6101c1610306366004611d8b565b610a36565b61028d60095481565b61028d600a5481565b61028d61032b366004611dc4565b610ab5565b61028d61033e366004611dc4565b60016020526000908152604090205481565b61028d600b5481565b61028d610367366004611dc4565b60046020526000908152604090205481565b61038c610387366004611dc4565b610d83565b604080519283526020830191909152016101f9565b6101ec604051806040016040528060068152602001652aa72496ab1960d11b81525081565b6102496103d4366004611d1e565b6110e8565b61028d6103e881565b6101c16103f0366004611dc4565b6110f5565b60055461026c906001600160a01b031681565b60075461026c906001600160a01b031681565b6101c1610429366004611de1565b611208565b61028d61043c366004611d8b565b600260209081526000928352604080842090915290825290205481565b6101c161141c565b600c5460011461048c5760405162461bcd60e51b815260040161048390611e58565b60405180910390fd5b6000600c558415158061049f5750600084115b6104f95760405162461bcd60e51b815260206004820152602560248201527f556e697377617056323a20494e53554646494349454e545f4f55545055545f416044820152641353d5539560da1b6064820152608401610483565b60008061050461097b565b5091509150816001600160701b0316871080156105295750806001600160701b031686105b61057f5760405162461bcd60e51b815260206004820152602160248201527f556e697377617056323a20494e53554646494349454e545f4c495155494449546044820152605960f81b6064820152608401610483565b60065460075460009182916001600160a01b039182169190811690891682148015906105bd5750806001600160a01b0316896001600160a01b031614155b6106015760405162461bcd60e51b8152602060048201526015602482015274556e697377617056323a20494e56414c49445f544f60581b6044820152606401610483565b8a1561061257610612828a8d611540565b891561062357610623818a8c611540565b8615610690576040516304347a1760e21b81526001600160a01b038a16906310d1e85c9061065d9033908f908f908e908e90600401611e83565b600060405180830381600087803b15801561067757600080fd5b505af115801561068b573d6000803e3d6000fd5b505050505b6040516370a0823160e01b81523060048201526001600160a01b038316906370a0823190602401602060405180830381865afa1580156106d4573d6000803e3d6000fd5b505050506040513d601f19601f820116820180604052508101906106f89190611ecf565b6040516370a0823160e01b81523060048201529094506001600160a01b038216906370a0823190602401602060405180830381865afa15801561073f573d6000803e3d6000fd5b505050506040513d601f19601f820116820180604052508101906107639190611ecf565b92505050600089856001600160701b031661077e9190611efe565b831161078b5760006107a8565b61079e8a6001600160701b038716611efe565b6107a89084611efe565b905060006107bf8a6001600160701b038716611efe565b83116107cc5760006107e9565b6107df8a6001600160701b038716611efe565b6107e99084611efe565b905060008211806107fa5750600081115b6108525760405162461bcd60e51b8152602060048201526024808201527f556e697377617056323a20494e53554646494349454e545f494e5055545f414d60448201526313d5539560e21b6064820152608401610483565b600061085f836003611f11565b61086b866103e8611f11565b6108759190611efe565b90506000610884836003611f11565b610890866103e8611f11565b61089a9190611efe565b90506108b26001600160701b03808916908a16611f11565b6108bf90620f4240611f11565b6108c98284611f11565b10156109065760405162461bcd60e51b815260206004820152600c60248201526b556e697377617056323a204b60a01b6044820152606401610483565b50506109148484888861165b565b60408051838152602081018390529081018c9052606081018b90526001600160a01b038a169033907fd78ad95fa46c994b6551d0da85fc275fe613ce37657fb8d5e3d130840159d8229060800160405180910390a350506001600c55505050505050505050565b6008546001600160701b0380821692600160701b830490911691600160e01b900463ffffffff1690565b60006109b2338484611813565b5060015b92915050565b6001600160a01b038316600090815260026020908152604080832033845290915281205460001914610a21576001600160a01b038416600090815260026020908152604080832033845290915281208054849290610a1b908490611efe565b90915550505b610a2c848484611875565b5060019392505050565b6005546001600160a01b03163314610a875760405162461bcd60e51b81526020600482015260146024820152732ab734b9bbb0b82b191d102327a92124a22222a760611b6044820152606401610483565b600680546001600160a01b039384166001600160a01b03199182161790915560078054929093169116179055565b6000600c54600114610ad95760405162461bcd60e51b815260040161048390611e58565b6000600c81905580610ae961097b565b506006546040516370a0823160e01b81523060048201529294509092506000916001600160a01b03909116906370a0823190602401602060405180830381865afa158015610b3b573d6000803e3d6000fd5b505050506040513d601f19601f82011682018060405250810190610b5f9190611ecf565b6007546040516370a0823160e01b81523060048201529192506000916001600160a01b03909116906370a0823190602401602060405180830381865afa158015610bad573d6000803e3d6000fd5b505050506040513d601f19601f82011682018060405250810190610bd19190611ecf565b90506000610be86001600160701b03861684611efe565b90506000610bff6001600160701b03861684611efe565b90506000610c0d8787611916565b60008054919250819003610c4e576103e8610c30610c2b8587611f11565b611a55565b610c3a9190611efe565b9850610c4960006103e8611ac5565b610c95565b610c926001600160701b038916610c658387611f11565b610c6f9190611f3e565b6001600160701b038916610c838487611f11565b610c8d9190611f3e565b611b4e565b98505b60008911610cf65760405162461bcd60e51b815260206004820152602860248201527f556e697377617056323a20494e53554646494349454e545f4c495155494449546044820152671657d3525395115160c21b6064820152608401610483565b610d008a8a611ac5565b610d0c86868a8a61165b565b8115610d3557600854610d31906001600160701b03600160701b820481169116611f11565b600b555b604080518581526020810185905233917f4c209b5fc8ad50758f13e2e1088ba56a560dff690a1c6fef26394f4c03821c4f910160405180910390a250506001600c5550949695505050505050565b600080600c54600114610da85760405162461bcd60e51b815260040161048390611e58565b6000600c81905580610db861097b565b506006546007546040516370a0823160e01b81523060048201529395509193506001600160a01b039081169291169060009083906370a0823190602401602060405180830381865afa158015610e12573d6000803e3d6000fd5b505050506040513d601f19601f82011682018060405250810190610e369190611ecf565b6040516370a0823160e01b81523060048201529091506000906001600160a01b038416906370a0823190602401602060405180830381865afa158015610e80573d6000803e3d6000fd5b505050506040513d601f19601f82011682018060405250810190610ea49190611ecf565b30600090815260016020526040812054919250610ec18888611916565b60005490915080610ed28685611f11565b610edc9190611f3e565b9a5080610ee98585611f11565b610ef39190611f3e565b995060008b118015610f05575060008a115b610f625760405162461bcd60e51b815260206004820152602860248201527f556e697377617056323a20494e53554646494349454e545f4c495155494449546044820152671657d0955493915160c21b6064820152608401610483565b610f6c3084611b66565b610f77878d8d611540565b610f82868d8c611540565b6040516370a0823160e01b81523060048201526001600160a01b038816906370a0823190602401602060405180830381865afa158015610fc6573d6000803e3d6000fd5b505050506040513d601f19601f82011682018060405250810190610fea9190611ecf565b6040516370a0823160e01b81523060048201529095506001600160a01b038716906370a0823190602401602060405180830381865afa158015611031573d6000803e3d6000fd5b505050506040513d601f19601f820116820180604052508101906110559190611ecf565b935061106385858b8b61165b565b811561108c57600854611088906001600160701b03600160701b820481169116611f11565b600b555b604080518c8152602081018c90526001600160a01b038e169133917fdccd412f0b1252819cb1fd330b93224ca42612892bb3f4f789976e6d81936496910160405180910390a35050505050505050506001600c81905550915091565b60006109b2338484611875565b600c546001146111175760405162461bcd60e51b815260040161048390611e58565b6000600c556006546007546008546040516370a0823160e01b81523060048201526001600160a01b0393841693909216916111b691849186916001600160701b03169083906370a08231906024015b602060405180830381865afa158015611183573d6000803e3d6000fd5b505050506040513d601f19601f820116820180604052508101906111a79190611ecf565b6111b19190611efe565b611540565b6008546040516370a0823160e01b81523060048201526111fe9183918691600160701b90046001600160701b0316906001600160a01b038416906370a0823190602401611166565b50506001600c5550565b4284101561124d5760405162461bcd60e51b8152602060048201526012602482015271155b9a5cddd85c158c8e881156141254915160721b6044820152606401610483565b6003546001600160a01b038816600090815260046020526040812080549192917f6e71edae12b1b97f4d1f60370fef10105fa2faae0126114a169c64845d6126c9918b918b918b9190876112a083611f52565b909155506040805160208101969096526001600160a01b0394851690860152929091166060840152608083015260a082015260c0810187905260e0016040516020818303038152906040528051906020012060405160200161131992919061190160f01b81526002810192909252602282015260420190565b60408051601f198184030181528282528051602091820120600080855291840180845281905260ff88169284019290925260608301869052608083018590529092509060019060a0016020604051602081039080840390855afa158015611384573d6000803e3d6000fd5b5050604051601f1901519150506001600160a01b038116158015906113ba5750886001600160a01b0316816001600160a01b0316145b6114065760405162461bcd60e51b815260206004820152601c60248201527f556e697377617056323a20494e56414c49445f5349474e4154555245000000006044820152606401610483565b611411898989611813565b505050505050505050565b600c5460011461143e5760405162461bcd60e51b815260040161048390611e58565b6000600c556006546040516370a0823160e01b8152306004820152611539916001600160a01b0316906370a0823190602401602060405180830381865afa15801561148d573d6000803e3d6000fd5b505050506040513d601f19601f820116820180604052508101906114b19190611ecf565b6007546040516370a0823160e01b81523060048201526001600160a01b03909116906370a0823190602401602060405180830381865afa1580156114f9573d6000803e3d6000fd5b505050506040513d601f19601f8201168201806040525081019061151d9190611ecf565b6008546001600160701b0380821691600160701b90041661165b565b6001600c55565b604080516001600160a01b038481166024830152604480830185905283518084039091018152606490920183526020820180516001600160e01b031663a9059cbb60e01b179052915160009283929087169161159c9190611f6b565b6000604051808303816000865af19150503d80600081146115d9576040519150601f19603f3d011682016040523d82523d6000602084013e6115de565b606091505b50915091508180156116085750805115806116085750808060200190518101906116089190611f87565b6116545760405162461bcd60e51b815260206004820152601a60248201527f556e697377617056323a205452414e534645525f4641494c45440000000000006044820152606401610483565b5050505050565b6001600160701b03841180159061167957506001600160701b038311155b6116bb5760405162461bcd60e51b8152602060048201526013602482015272556e697377617056323a204f564552464c4f5760681b6044820152606401610483565b60006116cc64010000000042611fa9565b60085490915063ffffffff600160e01b90910481168203908116158015906116fc57506001600160701b03841615155b801561171057506001600160701b03831615155b1561177b578063ffffffff166117388561172986611be9565b6001600160e01b031690611c02565b600980546001600160e01b03929092169290920201905563ffffffff81166117638461172987611be9565b600a80546001600160e01b0392909216929092020190555b506008805463ffffffff8316600160e01b026001600160e01b036001600160701b03888116600160701b9081026001600160e01b03199095168b83161794909417918216831794859055604080519382169282169290921783529290930490911660208201527f1c411e9a96e071241c2f21f7726b17ae89e3cab4c78be50e062b03a9fffbbad1910160405180910390a15050505050565b6001600160a01b0383811660008181526002602090815260408083209487168084529482529182902085905590518481527f8c5be1e5ebec7d5bd14f71427d1e84f3dd0314c0f7b2291e5b200ac8c7c3b92591015b60405180910390a3505050565b6001600160a01b0383166000908152600160205260408120805483929061189d908490611efe565b90915550506001600160a01b038216600090815260016020526040812080548392906118ca908490611fbd565b92505081905550816001600160a01b0316836001600160a01b03167fddf252ad1be2c89b69c2b068fc378daa952ba7f163c4a11628f55a4df523b3ef8360405161186891815260200190565b600080600560009054906101000a90046001600160a01b03166001600160a01b031663017e7e586040518163ffffffff1660e01b8152600401602060405180830381865afa15801561196c573d6000803e3d6000fd5b505050506040513d601f19601f820116820180604052508101906119909190611fd0565b600b546001600160a01b038216158015945091925090611a41578015611a3c5760006119cb610c2b6001600160701b03808816908916611f11565b905060006119d883611a55565b905080821115611a395760006119ee8284611efe565b6000546119fb9190611f11565b9050600082611a0b856005611f11565b611a159190611fbd565b90506000611a238284611f3e565b90508015611a3557611a358782611ac5565b5050505b50505b611a4d565b8015611a4d576000600b555b505092915050565b60006003821115611ab65750806000611a6f600283611f3e565b611a7a906001611fbd565b90505b81811015611ab057905080600281611a958186611f3e565b611a9f9190611fbd565b611aa99190611f3e565b9050611a7d565b50919050565b8115611ac0575060015b919050565b80600080828254611ad69190611fbd565b90915550506001600160a01b03821660009081526001602052604081208054839290611b03908490611fbd565b90915550506040518181526001600160a01b038316906000907fddf252ad1be2c89b69c2b068fc378daa952ba7f163c4a11628f55a4df523b3ef906020015b60405180910390a35050565b6000818310611b5d5781611b5f565b825b9392505050565b6001600160a01b03821660009081526001602052604081208054839290611b8e908490611efe565b9250508190555080600080828254611ba69190611efe565b90915550506040518181526000906001600160a01b038416907fddf252ad1be2c89b69c2b068fc378daa952ba7f163c4a11628f55a4df523b3ef90602001611b42565b60006109b6600160701b6001600160701b038416611fed565b6000611b5f6001600160701b03831684612016565b6001600160a01b0381168114611c2c57600080fd5b50565b600080600080600060808688031215611c4757600080fd5b85359450602086013593506040860135611c6081611c17565b9250606086013567ffffffffffffffff811115611c7c57600080fd5b8601601f81018813611c8d57600080fd5b803567ffffffffffffffff811115611ca457600080fd5b886020828401011115611cb657600080fd5b959894975092955050506020019190565b60005b83811015611ce2578181015183820152602001611cca565b50506000910152565b6020815260008251806020840152611d0a816040850160208701611cc7565b601f01601f19169190910160400192915050565b60008060408385031215611d3157600080fd5b8235611d3c81611c17565b946020939093013593505050565b600080600060608486031215611d5f57600080fd5b8335611d6a81611c17565b92506020840135611d7a81611c17565b929592945050506040919091013590565b60008060408385031215611d9e57600080fd5b8235611da981611c17565b91506020830135611db981611c17565b809150509250929050565b600060208284031215611dd657600080fd5b8135611b5f81611c17565b600080600080600080600060e0888a031215611dfc57600080fd5b8735611e0781611c17565b96506020880135611e1781611c17565b95506040880135945060608801359350608088013560ff81168114611e3b57600080fd5b9699959850939692959460a0840135945060c09093013592915050565b602080825260119082015270155b9a5cddd85c158c8e881313d0d2d151607a1b604082015260600190565b60018060a01b038616815284602082015283604082015260806060820152816080820152818360a0830137600081830160a090810191909152601f909201601f19160101949350505050565b600060208284031215611ee157600080fd5b5051919050565b634e487b7160e01b600052601160045260246000fd5b818103818111156109b6576109b6611ee8565b80820281158282048414176109b6576109b6611ee8565b634e487b7160e01b600052601260045260246000fd5b600082611f4d57611f4d611f28565b500490565b600060018201611f6457611f64611ee8565b5060010190565b60008251611f7d818460208701611cc7565b9190910192915050565b600060208284031215611f9957600080fd5b81518015158114611b5f57600080fd5b600082611fb857611fb8611f28565b500690565b808201808211156109b6576109b6611ee8565b600060208284031215611fe257600080fd5b8151611b5f81611c17565b6001600160e01b03818116838216818102909216918183048114821517611a4d57611a4d611ee8565b60006001600160e01b0383168061202f5761202f611f28565b6001600160e01b0392909216919091049291505056fea2646970667358221220fe6f53483ad31743e2da1b5df36d375e5402f32b61d53d97fa3afd953ab679df64736f6c634300081a0033","linkReferences":{}},"methodIdentifiers":{"DOMAIN_SEPARATOR()":"3644e515","MINIMUM_LIQUIDITY()":"ba9a7a56","PERMIT_TYPEHASH()":"30adf81f","allowance(address,address)":"dd62ed3e","approve(address,uint256)":"095ea7b3","balanceOf(address)":"70a08231","burn(address)":"89afcb44","decimals()":"313ce567","factory()":"c45a0155","getReserves()":"0902f1ac","initialize(address,address)":"485cc955","kLast()":"7464fc3d","mint(address)":"6a627842","name()":"06fdde03","nonces(address)":"7ecebe00","permit(address,address,uint256,uint256,uint8,bytes32,bytes32)":"d505accf","price0CumulativeLast()":"5909c0d5","price1CumulativeLast()":"5a3d5493","skim(address)":"bc25cf77","swap(uint256,uint256,address,bytes)":"022c0d9f","symbol()":"95d89b41","sync()":"fff6cae9","token0()":"0dfe1681","token1()":"d21220a7","totalSupply()":"18160ddd","transfer(address,uint256)":"a9059cbb","transferFrom(address,address,uint256)":"23b872dd"},"id":64}