{"abi":[{"type":"function","name":"createAccount","inputs":[],"outputs":[],"stateMutability":"nonpayable"},{"type":"function","name":"ownerToAccount","inputs":[{"name":"","type":"address","internalType":"address"}],"outputs":[{"name":"","type":"address","internalType":"address"}],"stateMutability":"view"}],"bytecode":{"object":"0x6080604052348015600f57600080fd5b506108b68061001f6000396000f3fe608060405234801561001057600080fd5b50600436106100365760003560e01c80639dca362f1461003b578063e04cec2e14610045575b600080fd5b61004361008a565b005b61006e6100533660046100f2565b6000602081905290815260409020546001600160a01b031681565b6040516001600160a01b03909116815260200160405180910390f35b6000604051610098906100e5565b604051809103906000f0801580156100b4573d6000803e3d6000fd5b5033600090815260208190526040902080546001600160a01b0319166001600160a01b039290921691909117905550565b61075e8061012383390190565b60006020828403121561010457600080fd5b81356001600160a01b038116811461011b57600080fd5b939250505056fe6080604052600180546001600160a01b0319908116731465c6ed3553b0323249ea4cd17845068e33e6a717909155600280548216734386e6436c90cb296d03bef5553dee24fb996eb9179055600380549091167304bb66fffcd75eab1b8dfa81caab5fde8a7e4981179055348015607557600080fd5b506106d9806100856000396000f3fe608060405234801561001057600080fd5b50600436106100885760003560e01c806361bc221a1161005b57806361bc221a146100ff578063847a7b2014610108578063be3d21e91461011b578063e8927fbc1461012e57600080fd5b80631249c58b1461008d57806319822f7c14610097578063352566f2146100c15780633cd64718146100ec575b600080fd5b610095610136565b005b6100ae6100a5366004610417565b60009392505050565b6040519081526020015b60405180910390f35b6001546100d4906001600160a01b031681565b6040516001600160a01b0390911681526020016100b8565b6002546100d4906001600160a01b031681565b6100ae60005481565b6003546100d4906001600160a01b031681565b610095610129366004610487565b61020e565b610095610401565b6002546040516340c10f1960e01b8152306004820152678ac7230489e8000060248201526001600160a01b03909116906340c10f1990604401600060405180830381600087803b15801561018957600080fd5b505af115801561019d573d6000803e3d6000fd5b50506003546040516340c10f1960e01b8152306004820152678ac7230489e8000060248201526001600160a01b0390911692506340c10f199150604401600060405180830381600087803b1580156101f457600080fd5b505af1158015610208573d6000803e3d6000fd5b50505050565b60025460015460405163095ea7b360e01b81526001600160a01b0391821660048201526024810189905291169063095ea7b3906044016020604051808303816000875af1158015610263573d6000803e3d6000fd5b505050506040513d601f19601f8201168201806040525081019061028791906104e8565b5060035460015460405163095ea7b360e01b81526001600160a01b0391821660048201526024810189905291169063095ea7b3906044016020604051808303816000875af11580156102dd573d6000803e3d6000fd5b505050506040513d601f19601f8201168201806040525081019061030191906104e8565b50604080516002808252606082018352600092602083019080368337019050509050838160008151811061033757610337610527565b60200260200101906001600160a01b031690816001600160a01b031681525050828160018151811061036b5761036b610527565b6001600160a01b0392831660209182029290920101526001546040516338ed173960e01b81529116906338ed1739906103b0908a908a9086908b90899060040161053d565b6000604051808303816000875af11580156103cf573d6000803e3d6000fd5b505050506040513d6000823e601f3d908101601f191682016040526103f791908101906105af565b5050505050505050565b6000805490806104108361067c565b9190505550565b60008060006060848603121561042c57600080fd5b833567ffffffffffffffff81111561044357600080fd5b8401610120818703121561045657600080fd5b95602085013595506040909401359392505050565b80356001600160a01b038116811461048257600080fd5b919050565b60008060008060008060c087890312156104a057600080fd5b86359550602087013594506104b76040880161046b565b93506104c56060880161046b565b92506104d36080880161046b565b9598949750929591949360a090920135925050565b6000602082840312156104fa57600080fd5b8151801515811461050a57600080fd5b9392505050565b634e487b7160e01b600052604160045260246000fd5b634e487b7160e01b600052603260045260246000fd5b600060a0820187835286602084015260a0604084015280865180835260c08501915060208801925060005b8181101561058f5783516001600160a01b0316835260209384019390920191600101610568565b50506001600160a01b039590951660608401525050608001529392505050565b6000602082840312156105c157600080fd5b815167ffffffffffffffff8111156105d857600080fd5b8201601f810184136105e957600080fd5b805167ffffffffffffffff81111561060357610603610511565b8060051b604051601f19603f830116810181811067ffffffffffffffff8211171561063057610630610511565b60405291825260208184018101929081018784111561064e57600080fd5b6020850194505b8385101561067157845180825260209586019590935001610655565b509695505050505050565b60006001820161069c57634e487b7160e01b600052601160045260246000fd5b506001019056fea2646970667358221220187303db1012788d4d95059e869fa8f539482c8c4ede37649d206ccfa509575a64736f6c634300081a0033a2646970667358221220bd172e2b56ba0b8f6f7dcba0bdedc490c599b165fde81e8ed5fad12a7d1aa20e64736f6c634300081a0033","linkReferences":{}},"methodIdentifiers":{"createAccount()":"9dca362f","ownerToAccount(address)":"e04cec2e"},"id":79}