{
  "abi": [
    {
      "type": "function",
      "name": "counter",
      "inputs": [],
      "outputs": [
        {
          "name": "",
          "type": "uint256",
          "internalType": "uint256"
        }
      ],
      "stateMutability": "view"
    },
    {
      "type": "function",
      "name": "increase",
      "inputs": [],
      "outputs": [],
      "stateMutability": "nonpayable"
    },
    {
      "type": "function",
      "name": "mint",
      "inputs": [],
      "outputs": [],
      "stateMutability": "nonpayable"
    },
    {
      "type": "function",
      "name": "swap",
      "inputs": [
        {
          "name": "amountIn",
          "type": "uint256",
          "internalType": "uint256"
        },
        {
          "name": "amountOutMin",
          "type": "uint256",
          "internalType": "uint256"
        },
        {
          "name": "to",
          "type": "address",
          "internalType": "address"
        },
        {
          "name": "token1",
          "type": "address",
          "internalType": "address"
        },
        {
          "name": "token2",
          "type": "address",
          "internalType": "address"
        },
        {
          "name": "deadline",
          "type": "uint256",
          "internalType": "uint256"
        }
      ],
      "outputs": [],
      "stateMutability": "nonpayable"
    },
    {
      "type": "function",
      "name": "tkn1",
      "inputs": [],
      "outputs": [
        {
          "name": "",
          "type": "address",
          "internalType": "contract MyToken"
        }
      ],
      "stateMutability": "view"
    },
    {
      "type": "function",
      "name": "tkn2",
      "inputs": [],
      "outputs": [
        {
          "name": "",
          "type": "address",
          "internalType": "contract MyToken"
        }
      ],
      "stateMutability": "view"
    },
    {
      "type": "function",
      "name": "univ2Router",
      "inputs": [],
      "outputs": [
        {
          "name": "",
          "type": "address",
          "internalType": "contract UniswapV2Router"
        }
      ],
      "stateMutability": "view"
    },
    {
      "type": "function",
      "name": "validateUserOp",
      "inputs": [
        {
          "name": "userOp",
          "type": "tuple",
          "internalType": "struct PackedUserOperation",
          "components": [
            {
              "name": "sender",
              "type": "address",
              "internalType": "address"
            },
            {
              "name": "nonce",
              "type": "uint256",
              "internalType": "uint256"
            },
            {
              "name": "initCode",
              "type": "bytes",
              "internalType": "bytes"
            },
            {
              "name": "callData",
              "type": "bytes",
              "internalType": "bytes"
            },
            {
              "name": "accountGasLimits",
              "type": "bytes32",
              "internalType": "bytes32"
            },
            {
              "name": "preVerificationGas",
              "type": "uint256",
              "internalType": "uint256"
            },
            {
              "name": "gasFees",
              "type": "bytes32",
              "internalType": "bytes32"
            },
            {
              "name": "paymasterAndData",
              "type": "bytes",
              "internalType": "bytes"
            },
            {
              "name": "signature",
              "type": "bytes",
              "internalType": "bytes"
            }
          ]
        },
        {
          "name": "userOpHash",
          "type": "bytes32",
          "internalType": "bytes32"
        },
        {
          "name": "missingAccountFunds",
          "type": "uint256",
          "internalType": "uint256"
        }
      ],
      "outputs": [
        {
          "name": "validationData",
          "type": "uint256",
          "internalType": "uint256"
        }
      ],
      "stateMutability": "nonpayable"
    }
  ],
  "bytecode": {
    "object": "0x6080604052600180546001600160a01b0319908116732dbcdb8162516bb4b2b462f8b919c619c99df7df179091556002805482167397dbc1b214d66ec151850961fe48adbe9987f58317905560038054909116732adcaf88784bac00247b39278892924ec68ba50f179055348015607557600080fd5b50610670806100856000396000f3fe608060405234801561001057600080fd5b50600436106100885760003560e01c806361bc221a1161005b57806361bc221a146100ff578063847a7b2014610108578063be3d21e91461011b578063e8927fbc1461012e57600080fd5b80631249c58b1461008d57806319822f7c14610097578063352566f2146100c15780633cd64718146100ec575b600080fd5b610095610136565b005b6100ae6100a53660046103ae565b60009392505050565b6040519081526020015b60405180910390f35b6001546100d4906001600160a01b031681565b6040516001600160a01b0390911681526020016100b8565b6002546100d4906001600160a01b031681565b6100ae60005481565b6003546100d4906001600160a01b031681565b61009561012936600461041e565b61020e565b610095610398565b6002546040516340c10f1960e01b8152306004820152678ac7230489e8000060248201526001600160a01b03909116906340c10f1990604401600060405180830381600087803b15801561018957600080fd5b505af115801561019d573d6000803e3d6000fd5b50506003546040516340c10f1960e01b8152306004820152678ac7230489e8000060248201526001600160a01b0390911692506340c10f199150604401600060405180830381600087803b1580156101f457600080fd5b505af1158015610208573d6000803e3d6000fd5b50505050565b600280546001600160a01b0319166001600160a01b0385811691821790925560015460405163095ea7b360e01b815292166004830152602482018890529063095ea7b3906044016020604051808303816000875af1158015610274573d6000803e3d6000fd5b505050506040513d601f19601f82011682018060405250810190610298919061047f565b5060408051600280825260608201835260009260208301908036833701905050905083816000815181106102ce576102ce6104be565b60200260200101906001600160a01b031690816001600160a01b0316815250508281600181518110610302576103026104be565b6001600160a01b0392831660209182029290920101526001546040516338ed173960e01b81529116906338ed173990610347908a908a9086908b9089906004016104d4565b6000604051808303816000875af1158015610366573d6000803e3d6000fd5b505050506040513d6000823e601f3d908101601f1916820160405261038e9190810190610546565b5050505050505050565b6000805490806103a783610613565b9190505550565b6000806000606084860312156103c357600080fd5b833567ffffffffffffffff8111156103da57600080fd5b840161012081870312156103ed57600080fd5b95602085013595506040909401359392505050565b80356001600160a01b038116811461041957600080fd5b919050565b60008060008060008060c0878903121561043757600080fd5b863595506020870135945061044e60408801610402565b935061045c60608801610402565b925061046a60808801610402565b9598949750929591949360a090920135925050565b60006020828403121561049157600080fd5b815180151581146104a157600080fd5b9392505050565b634e487b7160e01b600052604160045260246000fd5b634e487b7160e01b600052603260045260246000fd5b600060a0820187835286602084015260a0604084015280865180835260c08501915060208801925060005b818110156105265783516001600160a01b03168352602093840193909201916001016104ff565b50506001600160a01b039590951660608401525050608001529392505050565b60006020828403121561055857600080fd5b815167ffffffffffffffff81111561056f57600080fd5b8201601f8101841361058057600080fd5b805167ffffffffffffffff81111561059a5761059a6104a8565b8060051b604051601f19603f830116810181811067ffffffffffffffff821117156105c7576105c76104a8565b6040529182526020818401810192908101878411156105e557600080fd5b6020850194505b83851015610608578451808252602095860195909350016105ec565b509695505050505050565b60006001820161063357634e487b7160e01b600052601160045260246000fd5b506001019056fea264697066735822122034c2929febff50ff209180f508f1486b4afb7f416cb522372433e3860690863d64736f6c634300081a0033",
    "linkReferences": {}
  },
  "methodIdentifiers": {
    "counter()": "61bc221a",
    "increase()": "e8927fbc",
    "mint()": "1249c58b",
    "swap(uint256,uint256,address,address,address,uint256)": "be3d21e9",
    "tkn1()": "3cd64718",
    "tkn2()": "847a7b20",
    "univ2Router()": "352566f2",
    "validateUserOp((address,uint256,bytes,bytes,bytes32,uint256,bytes32,bytes,bytes),bytes32,uint256)": "19822f7c"
  },
  "id": 44
}